{
  "_format": "hh-sol-artifact-1",
  "contractName": "Create",
  "sourceName": "contracts/VotingContract.sol",
  "abi": [
    {
      "inputs": [],
      "stateMutability": "nonpayable",
      "type": "constructor"
    },
    {
      "anonymous": false,
      "inputs": [
        {
          "indexed": true,
          "internalType": "uint256",
          "name": "candidateId",
          "type": "uint256"
        },
        {
          "indexed": false,
          "internalType": "string",
          "name": "age",
          "type": "string"
        },
        {
          "indexed": false,
          "internalType": "string",
          "name": "name",
          "type": "string"
        },
        {
          "indexed": false,
          "internalType": "string",
          "name": "image",
          "type": "string"
        },
        {
          "indexed": false,
          "internalType": "uint256",
          "name": "voteCount",
          "type": "uint256"
        },
        {
          "indexed": false,
          "internalType": "address",
          "name": "_address",
          "type": "address"
        },
        {
          "indexed": false,
          "internalType": "string",
          "name": "ipfs",
          "type": "string"
        }
      ],
      "name": "CandidateCreate",
      "type": "event"
    },
    {
      "anonymous": false,
      "inputs": [
        {
          "indexed": true,
          "internalType": "uint256",
          "name": "voter_voterId",
          "type": "uint256"
        },
        {
          "indexed": false,
          "internalType": "string",
          "name": "voter_name",
          "type": "string"
        },
        {
          "indexed": false,
          "internalType": "string",
          "name": "voter_image",
          "type": "string"
        },
        {
          "indexed": false,
          "internalType": "address",
          "name": "voter_address",
          "type": "address"
        },
        {
          "indexed": false,
          "internalType": "uint256",
          "name": "voter_allowed",
          "type": "uint256"
        },
        {
          "indexed": false,
          "internalType": "bool",
          "name": "voter_voted",
          "type": "bool"
        },
        {
          "indexed": false,
          "internalType": "uint256",
          "name": "voter_vote",
          "type": "uint256"
        },
        {
          "indexed": false,
          "internalType": "string",
          "name": "voter_ipfs",
          "type": "string"
        }
      ],
      "name": "VoterCreated",
      "type": "event"
    },
    {
      "inputs": [],
      "name": "_candidateId",
      "outputs": [
        {
          "internalType": "uint256",
          "name": "_value",
          "type": "uint256"
        }
      ],
      "stateMutability": "view",
      "type": "function"
    },
    {
      "inputs": [],
      "name": "_voterId",
      "outputs": [
        {
          "internalType": "uint256",
          "name": "_value",
          "type": "uint256"
        }
      ],
      "stateMutability": "view",
      "type": "function"
    },
    {
      "inputs": [
        {
          "internalType": "uint256",
          "name": "",
          "type": "uint256"
        }
      ],
      "name": "candidateAdress",
      "outputs": [
        {
          "internalType": "address",
          "name": "",
          "type": "address"
        }
      ],
      "stateMutability": "view",
      "type": "function"
    },
    {
      "inputs": [
        {
          "internalType": "address",
          "name": "",
          "type": "address"
        }
      ],
      "name": "candidates",
      "outputs": [
        {
          "internalType": "uint256",
          "name": "candidateId",
          "type": "uint256"
        },
        {
          "internalType": "string",
          "name": "age",
          "type": "string"
        },
        {
          "internalType": "string",
          "name": "name",
          "type": "string"
        },
        {
          "internalType": "string",
          "name": "image",
          "type": "string"
        },
        {
          "internalType": "uint256",
          "name": "voteCount",
          "type": "uint256"
        },
        {
          "internalType": "address",
          "name": "_address",
          "type": "address"
        },
        {
          "internalType": "string",
          "name": "ipfs",
          "type": "string"
        }
      ],
      "stateMutability": "view",
      "type": "function"
    },
    {
      "inputs": [],
      "name": "getCandidate",
      "outputs": [
        {
          "internalType": "address[]",
          "name": "",
          "type": "address[]"
        }
      ],
      "stateMutability": "view",
      "type": "function"
    },
    {
      "inputs": [
        {
          "internalType": "address",
          "name": "_address",
          "type": "address"
        }
      ],
      "name": "getCandidateData",
      "outputs": [
        {
          "internalType": "string",
          "name": "",
          "type": "string"
        },
        {
          "internalType": "string",
          "name": "",
          "type": "string"
        },
        {
          "internalType": "uint256",
          "name": "",
          "type": "uint256"
        },
        {
          "internalType": "string",
          "name": "",
          "type": "string"
        },
        {
          "internalType": "uint256",
          "name": "",
          "type": "uint256"
        },
        {
          "internalType": "string",
          "name": "",
          "type": "string"
        },
        {
          "internalType": "address",
          "name": "",
          "type": "address"
        }
      ],
      "stateMutability": "view",
      "type": "function"
    },
    {
      "inputs": [],
      "name": "getCandidateLength",
      "outputs": [
        {
          "internalType": "uint256",
          "name": "",
          "type": "uint256"
        }
      ],
      "stateMutability": "view",
      "type": "function"
    },
    {
      "inputs": [],
      "name": "getVotedVoterList",
      "outputs": [
        {
          "internalType": "address[]",
          "name": "",
          "type": "address[]"
        }
      ],
      "stateMutability": "view",
      "type": "function"
    },
    {
      "inputs": [
        {
          "internalType": "address",
          "name": "_address",
          "type": "address"
        }
      ],
      "name": "getVoterData",
      "outputs": [
        {
          "internalType": "uint256",
          "name": "",
          "type": "uint256"
        },
        {
          "internalType": "string",
          "name": "",
          "type": "string"
        },
        {
          "internalType": "string",
          "name": "",
          "type": "string"
        },
        {
          "internalType": "address",
          "name": "",
          "type": "address"
        },
        {
          "internalType": "string",
          "name": "",
          "type": "string"
        },
        {
          "internalType": "uint256",
          "name": "",
          "type": "uint256"
        },
        {
          "internalType": "bool",
          "name": "",
          "type": "bool"
        }
      ],
      "stateMutability": "view",
      "type": "function"
    },
    {
      "inputs": [],
      "name": "getVoterLength",
      "outputs": [
        {
          "internalType": "uint256",
          "name": "",
          "type": "uint256"
        }
      ],
      "stateMutability": "view",
      "type": "function"
    },
    {
      "inputs": [],
      "name": "getVoterList",
      "outputs": [
        {
          "internalType": "address[]",
          "name": "",
          "type": "address[]"
        }
      ],
      "stateMutability": "view",
      "type": "function"
    },
    {
      "inputs": [
        {
          "internalType": "address",
          "name": "_address",
          "type": "address"
        },
        {
          "internalType": "string",
          "name": "_age",
          "type": "string"
        },
        {
          "internalType": "string",
          "name": "_name",
          "type": "string"
        },
        {
          "internalType": "string",
          "name": "_image",
          "type": "string"
        },
        {
          "internalType": "string",
          "name": "_ipfs",
          "type": "string"
        }
      ],
      "name": "setCandidate",
      "outputs": [],
      "stateMutability": "nonpayable",
      "type": "function"
    },
    {
      "inputs": [
        {
          "internalType": "address",
          "name": "_candidateAddress",
          "type": "address"
        },
        {
          "internalType": "uint256",
          "name": "_candidateVoteId",
          "type": "uint256"
        }
      ],
      "name": "vote",
      "outputs": [],
      "stateMutability": "nonpayable",
      "type": "function"
    },
    {
      "inputs": [
        {
          "internalType": "uint256",
          "name": "",
          "type": "uint256"
        }
      ],
      "name": "votedVoters",
      "outputs": [
        {
          "internalType": "address",
          "name": "",
          "type": "address"
        }
      ],
      "stateMutability": "view",
      "type": "function"
    },
    {
      "inputs": [
        {
          "internalType": "address",
          "name": "_address",
          "type": "address"
        },
        {
          "internalType": "string",
          "name": "_name",
          "type": "string"
        },
        {
          "internalType": "string",
          "name": "_image",
          "type": "string"
        },
        {
          "internalType": "string",
          "name": "_ipfs",
          "type": "string"
        }
      ],
      "name": "voterRight",
      "outputs": [],
      "stateMutability": "nonpayable",
      "type": "function"
    },
    {
      "inputs": [
        {
          "internalType": "address",
          "name": "",
          "type": "address"
        }
      ],
      "name": "voters",
      "outputs": [
        {
          "internalType": "uint256",
          "name": "voter_voterId",
          "type": "uint256"
        },
        {
          "internalType": "string",
          "name": "voter_name",
          "type": "string"
        },
        {
          "internalType": "string",
          "name": "voter_image",
          "type": "string"
        },
        {
          "internalType": "address",
          "name": "voter_address",
          "type": "address"
        },
        {
          "internalType": "uint256",
          "name": "voter_allowed",
          "type": "uint256"
        },
        {
          "internalType": "bool",
          "name": "voter_voted",
          "type": "bool"
        },
        {
          "internalType": "uint256",
          "name": "voter_vote",
          "type": "uint256"
        },
        {
          "internalType": "string",
          "name": "voter_ipfs",
          "type": "string"
        }
      ],
      "stateMutability": "view",
      "type": "function"
    },
    {
      "inputs": [
        {
          "internalType": "uint256",
          "name": "",
          "type": "uint256"
        }
      ],
      "name": "votersAddrress",
      "outputs": [
        {
          "internalType": "address",
          "name": "",
          "type": "address"
        }
      ],
      "stateMutability": "view",
      "type": "function"
    },
    {
      "inputs": [],
      "name": "votingOrganizer",
      "outputs": [
        {
          "internalType": "address",
          "name": "",
          "type": "address"
        }
      ],
      "stateMutability": "view",
      "type": "function"
    }
  ],
  "bytecode": "0x608060405234801561001057600080fd5b5033600260006101000a81548173ffffffffffffffffffffffffffffffffffffffff021916908373ffffffffffffffffffffffffffffffffffffffff160217905550612739806100616000396000f3fe608060405234801561001057600080fd5b50600436106101165760003560e01c80638e945685116100a2578063b10abb3611610071578063b10abb3614610322578063b28d92ae14610352578063b9be315214610370578063c91ec7121461038e578063f7522a83146103aa57610116565b80638e945685146102795780638fb4cd8014610297578063a3ec138d146102cd578063a73889671461030457610116565b80635f74bbde116100e95780635f74bbde146101a95780636c027628146101c557806370218b85146101f55780637831ffb3146102135780638ab66a901461024357610116565b80630361419e1461011b57806305ad45a4146101375780632a466ac7146101555780635cc48aa71461018b575b600080fd5b61013560048036038101906101309190611c86565b6103c8565b005b61013f61068b565b60405161014c9190611d5a565b60405180910390f35b61016f600480360381019061016a9190611d75565b610698565b6040516101829796959493929190611e39565b60405180910390f35b610193610adf565b6040516101a09190611ec4565b60405180910390f35b6101c360048036038101906101be9190611f0b565b610b05565b005b6101df60048036038101906101da9190611f4b565b610ccd565b6040516101ec9190611ec4565b60405180910390f35b6101fd610d0c565b60405161020a9190612036565b60405180910390f35b61022d60048036038101906102289190611f4b565b610d9a565b60405161023a9190611ec4565b60405180910390f35b61025d60048036038101906102589190611d75565b610dd9565b6040516102709796959493929190612058565b60405180910390f35b61028161105b565b60405161028e9190612036565b60405180910390f35b6102b160048036038101906102ac9190611d75565b6110e9565b6040516102c497969594939291906120fe565b60405180910390f35b6102e760048036038101906102e29190611d75565b6114b1565b6040516102fb989796959493929190612182565b60405180910390f35b61030c6116be565b6040516103199190611d5a565b60405180910390f35b61033c60048036038101906103379190611f4b565b6116ca565b6040516103499190611ec4565b60405180910390f35b61035a611709565b6040516103679190612036565b60405180910390f35b610378611797565b6040516103859190611d5a565b60405180910390f35b6103a860048036038101906103a39190612215565b6117a3565b005b6103b26119fa565b6040516103bf9190611d5a565b60405180910390f35b3373ffffffffffffffffffffffffffffffffffffffff16600260009054906101000a900473ffffffffffffffffffffffffffffffffffffffff1673ffffffffffffffffffffffffffffffffffffffff1614610458576040517f08c379a000000000000000000000000000000000000000000000000000000000815260040161044f9061234c565b60405180910390fd5b6104626000611a07565b600061046e6000611a1d565b90506000600760008773ffffffffffffffffffffffffffffffffffffffff1673ffffffffffffffffffffffffffffffffffffffff168152602001908152602001600020905060008160040154146104fa576040517f08c379a00000000000000000000000000000000000000000000000000000000081526004016104f190612392565b60405180910390fd5b600181600401819055508481600101908051906020019061051c929190611a2b565b5083816002019080519060200190610535929190611a2b565b50858160030160006101000a81548173ffffffffffffffffffffffffffffffffffffffff021916908373ffffffffffffffffffffffffffffffffffffffff16021790555082816007019080519060200190610591929190611a2b565b508181600001819055506103e8816006018190555060008160050160006101000a81548160ff0219169083151502179055506006869080600181540180825580915050600190039060005260206000200160009091909190916101000a81548173ffffffffffffffffffffffffffffffffffffffff021916908373ffffffffffffffffffffffffffffffffffffffff160217905550817ff5f39971dd62d9929e3a9feaa6bb77fe7c7da0001babff8a65a7e51ad0201c1986868985600401548660050160009054906101000a900460ff1687600601548a60405161067b97969594939291906123b2565b60405180910390a2505050505050565b6000600680549050905090565b60608060006060600060606000600460008973ffffffffffffffffffffffffffffffffffffffff1673ffffffffffffffffffffffffffffffffffffffff168152602001908152602001600020600101600460008a73ffffffffffffffffffffffffffffffffffffffff1673ffffffffffffffffffffffffffffffffffffffff168152602001908152602001600020600201600460008b73ffffffffffffffffffffffffffffffffffffffff1673ffffffffffffffffffffffffffffffffffffffff16815260200190815260200160002060000154600460008c73ffffffffffffffffffffffffffffffffffffffff1673ffffffffffffffffffffffffffffffffffffffff168152602001908152602001600020600301600460008d73ffffffffffffffffffffffffffffffffffffffff1673ffffffffffffffffffffffffffffffffffffffff16815260200190815260200160002060040154600460008e73ffffffffffffffffffffffffffffffffffffffff1673ffffffffffffffffffffffffffffffffffffffff168152602001908152602001600020600601600460008f73ffffffffffffffffffffffffffffffffffffffff1673ffffffffffffffffffffffffffffffffffffffff16815260200190815260200160002060050160009054906101000a900473ffffffffffffffffffffffffffffffffffffffff168680546108a290612465565b80601f01602080910402602001604051908101604052809291908181526020018280546108ce90612465565b801561091b5780601f106108f05761010080835404028352916020019161091b565b820191906000526020600020905b8154815290600101906020018083116108fe57829003601f168201915b5050505050965085805461092e90612465565b80601f016020809104026020016040519081016040528092919081815260200182805461095a90612465565b80156109a75780601f1061097c576101008083540402835291602001916109a7565b820191906000526020600020905b81548152906001019060200180831161098a57829003601f168201915b505050505095508380546109ba90612465565b80601f01602080910402602001604051908101604052809291908181526020018280546109e690612465565b8015610a335780601f10610a0857610100808354040283529160200191610a33565b820191906000526020600020905b815481529060010190602001808311610a1657829003601f168201915b50505050509350818054610a4690612465565b80601f0160208091040260200160405190810160405280929190818152602001828054610a7290612465565b8015610abf5780601f10610a9457610100808354040283529160200191610abf565b820191906000526020600020905b815481529060010190602001808311610aa257829003601f168201915b505050505091509650965096509650965096509650919395979092949650565b600260009054906101000a900473ffffffffffffffffffffffffffffffffffffffff1681565b6000600760003373ffffffffffffffffffffffffffffffffffffffff1673ffffffffffffffffffffffffffffffffffffffff16815260200190815260200160002090508060050160009054906101000a900460ff1615610b9a576040517f08c379a0000000000000000000000000000000000000000000000000000000008152600401610b91906124e3565b60405180910390fd5b600081600401541415610be2576040517f08c379a0000000000000000000000000000000000000000000000000000000008152600401610bd99061254f565b60405180910390fd5b60018160050160006101000a81548160ff0219169083151502179055508181600601819055506005339080600181540180825580915050600190039060005260206000200160009091909190916101000a81548173ffffffffffffffffffffffffffffffffffffffff021916908373ffffffffffffffffffffffffffffffffffffffff1602179055508060040154600460008573ffffffffffffffffffffffffffffffffffffffff1673ffffffffffffffffffffffffffffffffffffffff1681526020019081526020016000206004016000828254610cc1919061259e565b92505081905550505050565b60068181548110610cdd57600080fd5b906000526020600020016000915054906101000a900473ffffffffffffffffffffffffffffffffffffffff1681565b60606003805480602002602001604051908101604052809291908181526020018280548015610d9057602002820191906000526020600020905b8160009054906101000a900473ffffffffffffffffffffffffffffffffffffffff1673ffffffffffffffffffffffffffffffffffffffff1681526020019060010190808311610d46575b5050505050905090565b60058181548110610daa57600080fd5b906000526020600020016000915054906101000a900473ffffffffffffffffffffffffffffffffffffffff1681565b6004602052806000526040600020600091509050806000015490806001018054610e0290612465565b80601f0160208091040260200160405190810160405280929190818152602001828054610e2e90612465565b8015610e7b5780601f10610e5057610100808354040283529160200191610e7b565b820191906000526020600020905b815481529060010190602001808311610e5e57829003601f168201915b505050505090806002018054610e9090612465565b80601f0160208091040260200160405190810160405280929190818152602001828054610ebc90612465565b8015610f095780601f10610ede57610100808354040283529160200191610f09565b820191906000526020600020905b815481529060010190602001808311610eec57829003601f168201915b505050505090806003018054610f1e90612465565b80601f0160208091040260200160405190810160405280929190818152602001828054610f4a90612465565b8015610f975780601f10610f6c57610100808354040283529160200191610f97565b820191906000526020600020905b815481529060010190602001808311610f7a57829003601f168201915b5050505050908060040154908060050160009054906101000a900473ffffffffffffffffffffffffffffffffffffffff1690806006018054610fd890612465565b80601f016020809104026020016040519081016040528092919081815260200182805461100490612465565b80156110515780601f1061102657610100808354040283529160200191611051565b820191906000526020600020905b81548152906001019060200180831161103457829003601f168201915b5050505050905087565b606060058054806020026020016040519081016040528092919081815260200182805480156110df57602002820191906000526020600020905b8160009054906101000a900473ffffffffffffffffffffffffffffffffffffffff1673ffffffffffffffffffffffffffffffffffffffff1681526020019060010190808311611095575b5050505050905090565b600060608060006060600080600760008973ffffffffffffffffffffffffffffffffffffffff1673ffffffffffffffffffffffffffffffffffffffff16815260200190815260200160002060000154600760008a73ffffffffffffffffffffffffffffffffffffffff1673ffffffffffffffffffffffffffffffffffffffff168152602001908152602001600020600101600760008b73ffffffffffffffffffffffffffffffffffffffff1673ffffffffffffffffffffffffffffffffffffffff168152602001908152602001600020600201600760008c73ffffffffffffffffffffffffffffffffffffffff1673ffffffffffffffffffffffffffffffffffffffff16815260200190815260200160002060030160009054906101000a900473ffffffffffffffffffffffffffffffffffffffff16600760008d73ffffffffffffffffffffffffffffffffffffffff1673ffffffffffffffffffffffffffffffffffffffff168152602001908152602001600020600701600760008e73ffffffffffffffffffffffffffffffffffffffff1673ffffffffffffffffffffffffffffffffffffffff16815260200190815260200160002060040154600760008f73ffffffffffffffffffffffffffffffffffffffff1673ffffffffffffffffffffffffffffffffffffffff16815260200190815260200160002060050160009054906101000a900460ff1685805461130090612465565b80601f016020809104026020016040519081016040528092919081815260200182805461132c90612465565b80156113795780601f1061134e57610100808354040283529160200191611379565b820191906000526020600020905b81548152906001019060200180831161135c57829003601f168201915b5050505050955084805461138c90612465565b80601f01602080910402602001604051908101604052809291908181526020018280546113b890612465565b80156114055780601f106113da57610100808354040283529160200191611405565b820191906000526020600020905b8154815290600101906020018083116113e857829003601f168201915b5050505050945082805461141890612465565b80601f016020809104026020016040519081016040528092919081815260200182805461144490612465565b80156114915780601f1061146657610100808354040283529160200191611491565b820191906000526020600020905b81548152906001019060200180831161147457829003601f168201915b505050505092509650965096509650965096509650919395979092949650565b60076020528060005260406000206000915090508060000154908060010180546114da90612465565b80601f016020809104026020016040519081016040528092919081815260200182805461150690612465565b80156115535780601f1061152857610100808354040283529160200191611553565b820191906000526020600020905b81548152906001019060200180831161153657829003601f168201915b50505050509080600201805461156890612465565b80601f016020809104026020016040519081016040528092919081815260200182805461159490612465565b80156115e15780601f106115b6576101008083540402835291602001916115e1565b820191906000526020600020905b8154815290600101906020018083116115c457829003601f168201915b5050505050908060030160009054906101000a900473ffffffffffffffffffffffffffffffffffffffff16908060040154908060050160009054906101000a900460ff169080600601549080600701805461163b90612465565b80601f016020809104026020016040519081016040528092919081815260200182805461166790612465565b80156116b45780601f10611689576101008083540402835291602001916116b4565b820191906000526020600020905b81548152906001019060200180831161169757829003601f168201915b5050505050905088565b60018060000154905081565b600381815481106116da57600080fd5b906000526020600020016000915054906101000a900473ffffffffffffffffffffffffffffffffffffffff1681565b6060600680548060200260200160405190810160405280929190818152602001828054801561178d57602002820191906000526020600020905b8160009054906101000a900473ffffffffffffffffffffffffffffffffffffffff1673ffffffffffffffffffffffffffffffffffffffff1681526020019060010190808311611743575b5050505050905090565b60008060000154905081565b3373ffffffffffffffffffffffffffffffffffffffff16600260009054906101000a900473ffffffffffffffffffffffffffffffffffffffff1673ffffffffffffffffffffffffffffffffffffffff1614611833576040517f08c379a000000000000000000000000000000000000000000000000000000000815260040161182a90612666565b60405180910390fd5b61183d6001611a07565b60006118496001611a1d565b90506000600460008873ffffffffffffffffffffffffffffffffffffffff1673ffffffffffffffffffffffffffffffffffffffff1681526020019081526020016000209050868160050160006101000a81548173ffffffffffffffffffffffffffffffffffffffff021916908373ffffffffffffffffffffffffffffffffffffffff160217905550858160010190805190602001906118e9929190611a2b565b5084816002019080519060200190611902929190611a2b565b508381600301908051906020019061191b929190611a2b565b5082816006019080519060200190611934929190611a2b565b50818160000181905550600081600401819055506003879080600181540180825580915050600190039060005260206000200160009091909190916101000a81548173ffffffffffffffffffffffffffffffffffffffff021916908373ffffffffffffffffffffffffffffffffffffffff160217905550817fd297f12b256bb8485a6013fb5e302017018123e99a0ebb20756c09e1707b4b9087878785600401548c896040516119e996959493929190612686565b60405180910390a250505050505050565b6000600380549050905090565b6001816000016000828254019250508190555050565b600081600001549050919050565b828054611a3790612465565b90600052602060002090601f016020900481019282611a595760008555611aa0565b82601f10611a7257805160ff1916838001178555611aa0565b82800160010185558215611aa0579182015b82811115611a9f578251825591602001919060010190611a84565b5b509050611aad9190611ab1565b5090565b5b80821115611aca576000816000905550600101611ab2565b5090565b6000604051905090565b600080fd5b600080fd5b600073ffffffffffffffffffffffffffffffffffffffff82169050919050565b6000611b0d82611ae2565b9050919050565b611b1d81611b02565b8114611b2857600080fd5b50565b600081359050611b3a81611b14565b92915050565b600080fd5b600080fd5b6000601f19601f8301169050919050565b7f4e487b7100000000000000000000000000000000000000000000000000000000600052604160045260246000fd5b611b9382611b4a565b810181811067ffffffffffffffff82111715611bb257611bb1611b5b565b5b80604052505050565b6000611bc5611ace565b9050611bd18282611b8a565b919050565b600067ffffffffffffffff821115611bf157611bf0611b5b565b5b611bfa82611b4a565b9050602081019050919050565b82818337600083830152505050565b6000611c29611c2484611bd6565b611bbb565b905082815260208101848484011115611c4557611c44611b45565b5b611c50848285611c07565b509392505050565b600082601f830112611c6d57611c6c611b40565b5b8135611c7d848260208601611c16565b91505092915050565b60008060008060808587031215611ca057611c9f611ad8565b5b6000611cae87828801611b2b565b945050602085013567ffffffffffffffff811115611ccf57611cce611add565b5b611cdb87828801611c58565b935050604085013567ffffffffffffffff811115611cfc57611cfb611add565b5b611d0887828801611c58565b925050606085013567ffffffffffffffff811115611d2957611d28611add565b5b611d3587828801611c58565b91505092959194509250565b6000819050919050565b611d5481611d41565b82525050565b6000602082019050611d6f6000830184611d4b565b92915050565b600060208284031215611d8b57611d8a611ad8565b5b6000611d9984828501611b2b565b91505092915050565b600081519050919050565b600082825260208201905092915050565b60005b83811015611ddc578082015181840152602081019050611dc1565b83811115611deb576000848401525b50505050565b6000611dfc82611da2565b611e068185611dad565b9350611e16818560208601611dbe565b611e1f81611b4a565b840191505092915050565b611e3381611b02565b82525050565b600060e0820190508181036000830152611e53818a611df1565b90508181036020830152611e678189611df1565b9050611e766040830188611d4b565b8181036060830152611e888187611df1565b9050611e976080830186611d4b565b81810360a0830152611ea98185611df1565b9050611eb860c0830184611e2a565b98975050505050505050565b6000602082019050611ed96000830184611e2a565b92915050565b611ee881611d41565b8114611ef357600080fd5b50565b600081359050611f0581611edf565b92915050565b60008060408385031215611f2257611f21611ad8565b5b6000611f3085828601611b2b565b9250506020611f4185828601611ef6565b9150509250929050565b600060208284031215611f6157611f60611ad8565b5b6000611f6f84828501611ef6565b91505092915050565b600081519050919050565b600082825260208201905092915050565b6000819050602082019050919050565b611fad81611b02565b82525050565b6000611fbf8383611fa4565b60208301905092915050565b6000602082019050919050565b6000611fe382611f78565b611fed8185611f83565b9350611ff883611f94565b8060005b838110156120295781516120108882611fb3565b975061201b83611fcb565b925050600181019050611ffc565b5085935050505092915050565b600060208201905081810360008301526120508184611fd8565b905092915050565b600060e08201905061206d600083018a611d4b565b818103602083015261207f8189611df1565b905081810360408301526120938188611df1565b905081810360608301526120a78187611df1565b90506120b66080830186611d4b565b6120c360a0830185611e2a565b81810360c08301526120d58184611df1565b905098975050505050505050565b60008115159050919050565b6120f8816120e3565b82525050565b600060e082019050612113600083018a611d4b565b81810360208301526121258189611df1565b905081810360408301526121398188611df1565b90506121486060830187611e2a565b818103608083015261215a8186611df1565b905061216960a0830185611d4b565b61217660c08301846120ef565b98975050505050505050565b600061010082019050612198600083018b611d4b565b81810360208301526121aa818a611df1565b905081810360408301526121be8189611df1565b90506121cd6060830188611e2a565b6121da6080830187611d4b565b6121e760a08301866120ef565b6121f460c0830185611d4b565b81810360e08301526122068184611df1565b90509998505050505050505050565b600080600080600060a0868803121561223157612230611ad8565b5b600061223f88828901611b2b565b955050602086013567ffffffffffffffff8111156122605761225f611add565b5b61226c88828901611c58565b945050604086013567ffffffffffffffff81111561228d5761228c611add565b5b61229988828901611c58565b935050606086013567ffffffffffffffff8111156122ba576122b9611add565b5b6122c688828901611c58565b925050608086013567ffffffffffffffff8111156122e7576122e6611add565b5b6122f388828901611c58565b9150509295509295909350565b7f4f6e6c79206f7267616e697a65722063616e2063726561746520766f74657200600082015250565b6000612336601f83611dad565b915061234182612300565b602082019050919050565b6000602082019050818103600083015261236581612329565b9050919050565b50565b600061237c600083611dad565b91506123878261236c565b600082019050919050565b600060208201905081810360008301526123ab8161236f565b9050919050565b600060e08201905081810360008301526123cc818a611df1565b905081810360208301526123e08189611df1565b90506123ef6040830188611e2a565b6123fc6060830187611d4b565b61240960808301866120ef565b61241660a0830185611d4b565b81810360c08301526124288184611df1565b905098975050505050505050565b7f4e487b7100000000000000000000000000000000000000000000000000000000600052602260045260246000fd5b6000600282049050600182168061247d57607f821691505b6020821081141561249157612490612436565b5b50919050565b7f596f75206861766520616c726561647920766f74656400000000000000000000600082015250565b60006124cd601683611dad565b91506124d882612497565b602082019050919050565b600060208201905081810360008301526124fc816124c0565b9050919050565b7f596f752068617665206e6f20726967687420746f20766f746500000000000000600082015250565b6000612539601983611dad565b915061254482612503565b602082019050919050565b600060208201905081810360008301526125688161252c565b9050919050565b7f4e487b7100000000000000000000000000000000000000000000000000000000600052601160045260246000fd5b60006125a982611d41565b91506125b483611d41565b9250827fffffffffffffffffffffffffffffffffffffffffffffffffffffffffffffffff038211156125e9576125e861256f565b5b828201905092915050565b7f4f6e6c79206f7267616e697a65722063616e20637265617465206120766f746560008201527f7300000000000000000000000000000000000000000000000000000000000000602082015250565b6000612650602183611dad565b915061265b826125f4565b604082019050919050565b6000602082019050818103600083015261267f81612643565b9050919050565b600060c08201905081810360008301526126a08189611df1565b905081810360208301526126b48188611df1565b905081810360408301526126c88187611df1565b90506126d76060830186611d4b565b6126e46080830185611e2a565b81810360a08301526126f68184611df1565b905097965050505050505056fea26469706673582212204e7418c019b55c25187335eb9cfb7bc1251b6898cdd302582ce00f36210aa09664736f6c63430008090033",
  "linkReferences": {},
  "deployedLinkReferences": {}
}